:020000023000CC
:10FC000002C0F5C043C1112484B7882349F0982F5E
:10FC10009A70923029F081FF02C097EF94BF1FD1F4
:10FC200085E08093810082E08093C00088E180932A
:10FC3000C10086E08093C20080E18093C4008EE022
:10FC4000F9D0279A82E020E33CEF91E030938500E1
:10FC50002093840096BBB09BFECF1F9AA89581503D
:10FC6000A9F7C0E0D0E0DAD0813471F4D7D0182FF2
:10FC7000E7D0123811F482E005C0113811F486E0A3
:10FC800001C083E0C4D0B0C0823411F484E103C069
:10FC9000853419F485E0DCD0A7C0853579F4BED071
:10FCA000C82FBCD0D0E0D82B8BB7D7FF02C0816063
:10FCB00001C08E7F8BBFCC0FDD1F95C0863581F4D0
:10FCC000ADD08D3449F4AAD01BB7A8D01170880FDD
:10FCD000182B1BBF81E001C083E0BAD080E0D2CFF7
:10FCE000843609F04EC09AD0082F10E0102F00275C
:10FCF00095D0082B93D0B82E7801C12C32E0D32EAA
:10FD00008DD0F60181936F01F1E0EF1AF108C1F790
:10FD100097D085E4B81213C06801EEEFDE1A7E01B9
:10FD200000E012E0C016D10609F45EC0F80161914E
:10FD30008F01C70128D1FFEFEF1AFF0AF3CF40E090
:10FD400050E063E0CE0153D06E01E12C92E0F92E39
:10FD5000F7014081818150E0582B61E0C60147D016
:10FD6000F2E0CF0ED11C0250110982E0E80EF11C26
:10FD70000115110569F740E050E065E0CE0137D08C
:10FD800033C0843719F54AD0082F10E0102F002710
:10FD900045D0082B43D0F82E53D0E5E4FE120DC019
:10FDA0007E01C701E8D033D001501109FFEFEF1AEF
:10FDB000FF0A01151105A9F717C07E01F701879108
:10FDC0007F0125D001501109C9F70EC0853739F4DC
:10FDD00037D08EE11CD088E91AD081E053CF81352D
:10FDE00011F488E027D02CD080E111D03CCFFC0169
:10FDF0000A0167BFE895112407B600FCFDCF6670C5
:10FE000029F0452B19F481E187BFE8950895909179
:10FE1000C00095FFFCCF8093C60008958091C0007C
:10FE200087FFFCCF8091C00084FD01C0A895809120
:10FE3000C6000895E0E6F0E098E19083808308959D
:10FE4000EDDF803219F088E0F5DFFFCF84E1DFCF0E
:10FE5000CF93C82FE3DFC150E9F7CF91F1CF282E20
:10FE600080E0E8DFE0E0FF270994CF92DF92EF9295
:10FE7000FF92DC01CB01642F6D01EE24FF24CBBE89
:10FE8000A901FF90EF90DF90CF90B1CF2F923F92DA
:10FE90004F925F926F927F928F929F92AF92BF929A
:10FEA000CF92DF92EF92FF920F931F93CF93DF9346
:10FEB00000D0CDB7DEB71801E9826B017C0100E00C
:10FEC00010E029013A01461A570A680A790A021510
:10FED0001305A9F120E030E043E0C701B601C5DF1A
:10FEE0004601570180E890E09B838A83D301C201D9
:10FEF000880D991DAA1DBB1DABBFFC012791369132
:10FF000041E0C501B401B1DF8A819B8101979B83E8
:10FF10008A8392E0890E911CA11CB11C8A819B816D
:10FF2000892B21F720E030E045E0C701B6019DDFD5
:10FF30009FEFD91AE90AF90A0F5F1F4FC8CF8981CD
:10FF4000882319F088E076DFFFCF0F900F900F9095
:10FF5000DF91CF911F910F91FF90EF90DF90CF90A5
:10FF6000BF90AF909F908F907F906F905F904F90D9
:10FF70003F902F900895F999FECF92BD81BDF89AD8
:10FF8000992780B50895262FF999FECF1FBA92BD03
:10FF900081BD20BD0FB6F894FA9AF99A0FBE01966A
:02FFA0000895C2
:02FFFE000206F9
:040000033000FC00CD
:00000001FF
